{
  "contractName": "Lottery",
  "abi": [
    {
      "inputs": [],
      "stateMutability": "nonpayable",
      "type": "constructor"
    },
    {
      "inputs": [],
      "name": "manager",
      "outputs": [
        {
          "internalType": "address",
          "name": "",
          "type": "address"
        }
      ],
      "stateMutability": "view",
      "type": "function",
      "constant": true
    },
    {
      "inputs": [
        {
          "internalType": "uint256",
          "name": "",
          "type": "uint256"
        }
      ],
      "name": "players",
      "outputs": [
        {
          "internalType": "address",
          "name": "",
          "type": "address"
        }
      ],
      "stateMutability": "view",
      "type": "function",
      "constant": true
    },
    {
      "inputs": [],
      "name": "balanceInPool",
      "outputs": [
        {
          "internalType": "uint256",
          "name": "",
          "type": "uint256"
        }
      ],
      "stateMutability": "view",
      "type": "function",
      "constant": true
    },
    {
      "inputs": [],
      "name": "enter",
      "outputs": [],
      "stateMutability": "payable",
      "type": "function",
      "payable": true
    },
    {
      "inputs": [],
      "name": "pickWinner",
      "outputs": [],
      "stateMutability": "nonpayable",
      "type": "function"
    }
  ],
  "bytecode": "0x608060405234801561001057600080fd5b50336000806101000a81548173ffffffffffffffffffffffffffffffffffffffff021916908373ffffffffffffffffffffffffffffffffffffffff160217905550610858806100606000396000f3fe60806040526004361061004a5760003560e01c8063481c6a751461004f5780635d495aea1461007a57806366c31db714610091578063e97dcb62146100bc578063f71d96cb146100c6575b600080fd5b34801561005b57600080fd5b50610064610103565b604051610071919061049c565b60405180910390f35b34801561008657600080fd5b5061008f610127565b005b34801561009d57600080fd5b506100a6610289565b6040516100b391906104d0565b60405180910390f35b6100c4610291565b005b3480156100d257600080fd5b506100ed60048036038101906100e8919061051c565b61033f565b6040516100fa919061049c565b60405180910390f35b60008054906101000a900473ffffffffffffffffffffffffffffffffffffffff1681565b60008054906101000a900473ffffffffffffffffffffffffffffffffffffffff1673ffffffffffffffffffffffffffffffffffffffff163373ffffffffffffffffffffffffffffffffffffffff161461017f57600080fd5b600060018054905061018f61037e565b6101999190610578565b90506000600182815481106101b1576101b06105a9565b5b9060005260206000200160009054906101000a900473ffffffffffffffffffffffffffffffffffffffff169050600067ffffffffffffffff8111156101f9576101f86105d8565b5b6040519080825280602002602001820160405280156102275781602001602082028036833780820191505090505b506001908051906020019061023d9291906103b4565b508073ffffffffffffffffffffffffffffffffffffffff166108fc479081150290604051600060405180830381858888f19350505050158015610284573d6000803e3d6000fd5b505050565b600047905090565b662386f26fc1000034116102da576040517f08c379a00000000000000000000000000000000000000000000000000000000081526004016102d19061068a565b60405180910390fd5b6001339080600181540180825580915050600190039060005260206000200160009091909190916101000a81548173ffffffffffffffffffffffffffffffffffffffff021916908373ffffffffffffffffffffffffffffffffffffffff160217905550565b6001818154811061034f57600080fd5b906000526020600020016000915054906101000a900473ffffffffffffffffffffffffffffffffffffffff1681565b600044426001604051602001610396939291906107e9565b6040516020818303038152906040528051906020012060001c905090565b82805482825590600052602060002090810192821561042d579160200282015b8281111561042c5782518260006101000a81548173ffffffffffffffffffffffffffffffffffffffff021916908373ffffffffffffffffffffffffffffffffffffffff160217905550916020019190600101906103d4565b5b50905061043a919061043e565b5090565b5b8082111561045757600081600090555060010161043f565b5090565b600073ffffffffffffffffffffffffffffffffffffffff82169050919050565b60006104868261045b565b9050919050565b6104968161047b565b82525050565b60006020820190506104b1600083018461048d565b92915050565b6000819050919050565b6104ca816104b7565b82525050565b60006020820190506104e560008301846104c1565b92915050565b600080fd5b6104f9816104b7565b811461050457600080fd5b50565b600081359050610516816104f0565b92915050565b600060208284031215610532576105316104eb565b5b600061054084828501610507565b91505092915050565b7f4e487b7100000000000000000000000000000000000000000000000000000000600052601260045260246000fd5b6000610583826104b7565b915061058e836104b7565b92508261059e5761059d610549565b5b828206905092915050565b7f4e487b7100000000000000000000000000000000000000000000000000000000600052603260045260246000fd5b7f4e487b7100000000000000000000000000000000000000000000000000000000600052604160045260246000fd5b600082825260208201905092915050565b7f74686520616d6f756e742073686f756c64206265206d6f7265207468616e203060008201527f2e31206574686572000000000000000000000000000000000000000000000000602082015250565b6000610674602883610607565b915061067f82610618565b604082019050919050565b600060208201905081810360008301526106a381610667565b9050919050565b6000819050919050565b6106c56106c0826104b7565b6106aa565b82525050565b600081549050919050565b600081905092915050565b60008190508160005260206000209050919050565b6106ff8161047b565b82525050565b600061071183836106f6565b60208301905092915050565b60008160001c9050919050565b600073ffffffffffffffffffffffffffffffffffffffff82169050919050565b600061075d6107588361071d565b61072a565b9050919050565b6000610770825461074a565b9050919050565b6000600182019050919050565b600061078f826106cb565b61079981856106d6565b93506107a4836106e1565b8060005b838110156107dc576107b982610764565b6107c38882610705565b97506107ce83610777565b9250506001810190506107a8565b5085935050505092915050565b60006107f582866106b4565b60208201915061080582856106b4565b6020820191506108158284610784565b915081905094935050505056fea2646970667358221220050e9ce3be5d545dc49420f737568c5e227c63454d9bc5ea7c48f09640d0752164736f6c634300080d0033",
  "immutableReferences": {},
  "source": "// SPDX-License-Identifier: MIT\r\npragma solidity ^0.8.13;\r\n\r\ncontract Lottery {\r\n    address public manager;\r\n    address [] public players;\r\n\r\n    constructor() {\r\n        manager = msg.sender;\r\n    }\r\n\r\n    modifier restricted() {\r\n        require(msg.sender == manager);\r\n        _;\r\n    }\r\n\r\n    function balanceInPool() public view returns (uint) {\r\n        return address(this).balance;\r\n    }\r\n\r\n    function enter() public payable {\r\n        require(msg.value > .01 ether, \"the amount should be more than 0.1 ether\");\r\n        players.push(msg.sender);\r\n    }\r\n\r\n    function random() private view returns (uint) {\r\n        return uint(keccak256(abi.encodePacked(block.difficulty, block.timestamp, players)));\r\n    }\r\n\r\n    function pickWinner() public restricted {\r\n        uint index = random() % players.length;\r\n        address payable winner = payable(players[index]);\r\n        players = new address[](0);\r\n        winner.transfer(address(this).balance);\r\n    }\r\n}",
  "sourcePath": "D:\\lottery-smart-contract\\contracts\\Lottery.sol",
  "compiler": {
    "name": "solc",
    "version": "0.8.13+commit.abaa5c0e.Emscripten.clang"
  },
  "schemaVersion": "3.4.7",
  "updatedAt": "2022-05-10T07:21:44.171Z",
  "networkType": "ethereum",
  "devdoc": {
    "kind": "dev",
    "methods": {},
    "version": 1
  },
  "userdoc": {
    "kind": "user",
    "methods": {},
    "version": 1
  }
}